{
    "hash": "015f37a20d517645a11a6cdd316049f41bc77b4a4057b2dd092114b78147f42c",
    "confirmations": 12,
    "strippedsize": 2270,
    "size": 3178,
    "weight": 9988,
    "height": 139,
    "version": 536870912,
    "versionHex": "20000000",
    "merkleroot": "6137e975fe5c3d1ad153a43941fe812252ab8cda60283e6e93937cfc9a0369be",
    "tx": [
        {
            "txid": "09bbfd286d0399b57ac7c85956fccbe7e080cedd7a01723d8d68038f0cf57159",
            "hash": "ed1620cdd028c99d57ee0709f963976bb75cac93f5171f5a2f5dd9976e5c56bc",
            "version": 2,
            "size": 171,
            "vsize": 144,
            "weight": 576,
            "locktime": 0,
            "vin": [
                {
                    "coinbase": "028b000101",
                    "sequence": 4294967295
                }
            ],
            "vout": [
                {
                    "value": 50.00026953,
                    "n": 0,
                    "scriptPubKey": {
                        "asm": "OP_HASH160 f2d479a78b981e4a2b05be5f89ef7c468ac48e78 OP_EQUAL",
                        "hex": "a914f2d479a78b981e4a2b05be5f89ef7c468ac48e7887",
                        "reqSigs": 1,
                        "type": "scripthash",
                        "addresses": [
                            "2NFPC3k5RjZ4GAQgLqJdiVdJ6gqWqEBryXq"
                        ]
                    }
                },
                {
                    "value": 0.0,
                    "n": 1,
                    "scriptPubKey": {
                        "asm": "OP_RETURN aa21a9ed9f5a62816cebb2044be9db74a26762020defe9e8b251b73af2abefad7d4b355c",
                        "hex": "6a24aa21a9ed9f5a62816cebb2044be9db74a26762020defe9e8b251b73af2abefad7d4b355c",
                        "type": "nulldata"
                    }
                }
            ],
            "hex": "020000000001010000000000000000000000000000000000000000000000000000000000000000ffffffff05028b000101ffffffff02495b062a0100000017a914f2d479a78b981e4a2b05be5f89ef7c468ac48e78870000000000000000266a24aa21a9ed9f5a62816cebb2044be9db74a26762020defe9e8b251b73af2abefad7d4b355c0120000000000000000000000000000000000000000000000000000000000000000000000000"
        },
        {
            "txid": "e2fc769668f7306ca09865c10dd744ed5510f1cec35b8f854c9ed346229a303b",
            "hash": "e2fc769668f7306ca09865c10dd744ed5510f1cec35b8f854c9ed346229a303b",
            "version": 1,
            "size": 252,
            "vsize": 252,
            "weight": 1008,
            "locktime": 0,
            "vin": [
                {
                    "txid": "c3782ddecd85760380ef71329a94b26a7a0f668701b8121773eb14e874714c27",
                    "vout": 2,
                    "scriptSig": {
                        "asm": "3045022100b6c2fa10587d6fed3a0eecfd098b160f69a850beca139fe03ef65bec4cba1c5b02204a833a16c22bbd32722243ea3270e672f646ee9406e8797e11093951e92efbd5[ALL] 03dcca91c2ec7229f1b4f4c4f664c92d3303dddef8d38736f6a7f28de16f3ce416",
                        "hex": "483045022100b6c2fa10587d6fed3a0eecfd098b160f69a850beca139fe03ef65bec4cba1c5b02204a833a16c22bbd32722243ea3270e672f646ee9406e8797e11093951e92efbd5012103dcca91c2ec7229f1b4f4c4f664c92d3303dddef8d38736f6a7f28de16f3ce416"
                    },
                    "sequence": 4294967295
                }
            ],
            "vout": [
                {
                    "value": 5.0E-5,
                    "n": 0,
                    "scriptPubKey": {
                        "asm": "OP_HASH160 4c0e4893237f85479f489b32c8ff0faf3ee2e1c9 OP_EQUAL",
                        "hex": "a9144c0e4893237f85479f489b32c8ff0faf3ee2e1c987",
                        "reqSigs": 1,
                        "type": "scripthash",
                        "addresses": [
                            "2MzBNTJDjjXgViKBGnatDU3yWkJ8pJkEg9w"
                        ]
                    }
                },
                {
                    "value": 0.00608194,
                    "n": 1,
                    "scriptPubKey": {
                        "asm": "0 007128282856f8e8f3c75909f9f1474b55cb1f16",
                        "hex": "0014007128282856f8e8f3c75909f9f1474b55cb1f16",
                        "reqSigs": 1,
                        "type": "witness_v0_keyhash",
                        "addresses": [
                            "bcrt1qqpcjs2pg2muw3u78tyylnu28fd2uk8ckr30ezc"
                        ]
                    }
                },
                {
                    "value": 6.30257669,
                    "n": 2,
                    "scriptPubKey": {
                        "asm": "0 9bc809698674ec7c01d35d438e9d0de1aa87b6c8",
                        "hex": "00149bc809698674ec7c01d35d438e9d0de1aa87b6c8",
                        "reqSigs": 1,
                        "type": "witness_v0_keyhash",
                        "addresses": [
                            "bcrt1qn0yqj6vxwnk8cqwnt4pca8gdux4g0dkghc9rur"
                        ]
                    }
                }
            ],
            "hex": "0100000001274c7174e814eb731712b80187660f7a6ab2949a3271ef80037685cdde2d78c3020000006b483045022100b6c2fa10587d6fed3a0eecfd098b160f69a850beca139fe03ef65bec4cba1c5b02204a833a16c22bbd32722243ea3270e672f646ee9406e8797e11093951e92efbd5012103dcca91c2ec7229f1b4f4c4f664c92d3303dddef8d38736f6a7f28de16f3ce416ffffffff03881300000000000017a9144c0e4893237f85479f489b32c8ff0faf3ee2e1c987c247090000000000160014007128282856f8e8f3c75909f9f1474b55cb1f1605f89025000000001600149bc809698674ec7c01d35d438e9d0de1aa87b6c800000000"
        },
        {
            "txid": "b36a2c90dab09a0b99d30a3b132af37b79d8266a1510decc34683a2784228337",
            "hash": "b36a2c90dab09a0b99d30a3b132af37b79d8266a1510decc34683a2784228337",
            "version": 1,
            "size": 301,
            "vsize": 301,
            "weight": 1204,
            "locktime": 138,
            "vin": [
                {
                    "txid": "91435b1e8a138fce39acdb6efbc6187e76ad10db84baf9ed4c987af48cccfa14",
                    "vout": 0,
                    "scriptSig": {
                        "asm": "0 304402201f00d9a4aab1a3a239f1ad95a910092c0c55423480d609eaad4599cf7ecb7f480220668b1a9cf5624b1c4ece6da3f64bc6021e509f588ae1006601acd8a9f83b3576[ALL] 3045022100982eca77a72a2bdba51b9231afd4521400bee1bb7830634eb26db2b0c621bc46022073d7325916e2b5ceb1d2e510a5161fd9115105a8dafa94068864624bb10d190e[ALL] 52210229713ad5c604c585128b3a5da6de20d78fc33bd3b595e9991f4c0e1fee99f845210398ad45a74bf5a5c5a8ec31de6815d2e805a23e68c0f8001770e74bc4c17c5b3152ae",
                        "hex": "0047304402201f00d9a4aab1a3a239f1ad95a910092c0c55423480d609eaad4599cf7ecb7f480220668b1a9cf5624b1c4ece6da3f64bc6021e509f588ae1006601acd8a9f83b357601483045022100982eca77a72a2bdba51b9231afd4521400bee1bb7830634eb26db2b0c621bc46022073d7325916e2b5ceb1d2e510a5161fd9115105a8dafa94068864624bb10d190e014752210229713ad5c604c585128b3a5da6de20d78fc33bd3b595e9991f4c0e1fee99f845210398ad45a74bf5a5c5a8ec31de6815d2e805a23e68c0f8001770e74bc4c17c5b3152ae"
                    },
                    "sequence": 4294967294
                }
            ],
            "vout": [
                {
                    "value": 0.0219,
                    "n": 0,
                    "scriptPubKey": {
                        "asm": "OP_HASH160 4c0e4893237f85479f489b32c8ff0faf3ee2e1c9 OP_EQUAL",
                        "hex": "a9144c0e4893237f85479f489b32c8ff0faf3ee2e1c987",
                        "reqSigs": 1,
                        "type": "scripthash",
                        "addresses": [
                            "2MzBNTJDjjXgViKBGnatDU3yWkJ8pJkEg9w"
                        ]
                    }
                }
            ],
            "hex": "010000000114facc8cf47a984cedf9ba84db10ad767e18c6fb6edbac39ce8f138a1e5b439100000000da0047304402201f00d9a4aab1a3a239f1ad95a910092c0c55423480d609eaad4599cf7ecb7f480220668b1a9cf5624b1c4ece6da3f64bc6021e509f588ae1006601acd8a9f83b357601483045022100982eca77a72a2bdba51b9231afd4521400bee1bb7830634eb26db2b0c621bc46022073d7325916e2b5ceb1d2e510a5161fd9115105a8dafa94068864624bb10d190e014752210229713ad5c604c585128b3a5da6de20d78fc33bd3b595e9991f4c0e1fee99f845210398ad45a74bf5a5c5a8ec31de6815d2e805a23e68c0f8001770e74bc4c17c5b3152aefeffffff01b06a21000000000017a9144c0e4893237f85479f489b32c8ff0faf3ee2e1c9878a000000"
        },
        {
            "txid": "f52b22f8c5156fb51122a90b8dc39989c6912c02a69e22bd3148b0692a7cd699",
            "hash": "a1cb920222f6470dae2b90af42ec4da2e541bc4de9cec11441ca2dd0032bca2c",
            "version": 1,
            "size": 254,
            "vsize": 173,
            "weight": 689,
            "locktime": 0,
            "vin": [
                {
                    "txid": "e941f2963a9b34caba2663a936b5f029ebd51bb306c4ff2ba0674549880dba33",
                    "vout": 2,
                    "scriptSig": {
                        "asm": "",
                        "hex": ""
                    },
                    "txinwitness": [
                        "304402200d4f214756753861adf835f5d175835d3cd50a19edbf9881572ab7f831a030de0220181b94bbb7d7b0a7a6eee06881a3265cb28405f2d14055e1ff23ac650047193001",
                        "02772467db1e5909e7e9f2b169daccf556e7e2981b145c756db649f3972d913c32"
                    ],
                    "sequence": 4294967295
                }
            ],
            "vout": [
                {
                    "value": 5.0E-5,
                    "n": 0,
                    "scriptPubKey": {
                        "asm": "OP_HASH160 4c0e4893237f85479f489b32c8ff0faf3ee2e1c9 OP_EQUAL",
                        "hex": "a9144c0e4893237f85479f489b32c8ff0faf3ee2e1c987",
                        "reqSigs": 1,
                        "type": "scripthash",
                        "addresses": [
                            "2MzBNTJDjjXgViKBGnatDU3yWkJ8pJkEg9w"
                        ]
                    }
                },
                {
                    "value": 0.01605126,
                    "n": 1,
                    "scriptPubKey": {
                        "asm": "0 f6da24d081a1b63dcacf4a5762a8ed91fd472c68",
                        "hex": "0014f6da24d081a1b63dcacf4a5762a8ed91fd472c68",
                        "reqSigs": 1,
                        "type": "witness_v0_keyhash",
                        "addresses": [
                            "bcrt1q7mdzf5yp5xmrmjk0fftk928dj875wtrgkwqr5x"
                        ]
                    }
                },
                {
                    "value": 0.12153947,
                    "n": 2,
                    "scriptPubKey": {
                        "asm": "0 4755561caa18d651bf59912545764811d0ab96f6",
                        "hex": "00144755561caa18d651bf59912545764811d0ab96f6",
                        "reqSigs": 1,
                        "type": "witness_v0_keyhash",
                        "addresses": [
                            "bcrt1qga24v892rrt9r06ejyj52ajgz8g2h9hkwquzg4"
                        ]
                    }
                }
            ],
            "hex": "0100000000010133ba0d88494567a02bffc406b31bd5eb29f0b536a96326baca349b3a96f241e90200000000ffffffff03881300000000000017a9144c0e4893237f85479f489b32c8ff0faf3ee2e1c987067e180000000000160014f6da24d081a1b63dcacf4a5762a8ed91fd472c685b74b900000000001600144755561caa18d651bf59912545764811d0ab96f60247304402200d4f214756753861adf835f5d175835d3cd50a19edbf9881572ab7f831a030de0220181b94bbb7d7b0a7a6eee06881a3265cb28405f2d14055e1ff23ac6500471930012102772467db1e5909e7e9f2b169daccf556e7e2981b145c756db649f3972d913c3200000000"
        },
        {
            "txid": "4648da84e1479d222561f72c5211be15510b20129e86c60bdbbdb3e017583a91",
            "hash": "16e1ae45d2c6ddaaefeed97a822a95a2933096bf377db147a63d9b730cc30d20",
            "version": 1,
            "size": 254,
            "vsize": 173,
            "weight": 689,
            "locktime": 0,
            "vin": [
                {
                    "txid": "183628048e3b7767e93116c39edc6191311ff3e4666cef10dbda038854c46ee0",
                    "vout": 2,
                    "scriptSig": {
                        "asm": "",
                        "hex": ""
                    },
                    "txinwitness": [
                        "304402203eeb1713b582be1d74bf6a9f95c573dd41baeedf1efd1bc9a1ad1cccad97c4f70220799a399f53f9325f6cf9681b0138f80bd80f3dc900a4d0ab5cc3c97d5be85f1801",
                        "0255f56a7be9f88ccf5885ac2f8cd67320424d533d71083270a2891b2488ffb22b"
                    ],
                    "sequence": 4294967295
                }
            ],
            "vout": [
                {
                    "value": 5.0E-5,
                    "n": 0,
                    "scriptPubKey": {
                        "asm": "OP_HASH160 4c0e4893237f85479f489b32c8ff0faf3ee2e1c9 OP_EQUAL",
                        "hex": "a9144c0e4893237f85479f489b32c8ff0faf3ee2e1c987",
                        "reqSigs": 1,
                        "type": "scripthash",
                        "addresses": [
                            "2MzBNTJDjjXgViKBGnatDU3yWkJ8pJkEg9w"
                        ]
                    }
                },
                {
                    "value": 0.0060466,
                    "n": 1,
                    "scriptPubKey": {
                        "asm": "0 5230c895305a232ef2a4feb0a91e7d99e22fd515",
                        "hex": "00145230c895305a232ef2a4feb0a91e7d99e22fd515",
                        "reqSigs": 1,
                        "type": "witness_v0_keyhash",
                        "addresses": [
                            "bcrt1q2gcv39fstg3jau4yl6c2j8nan83zl4g4w5ch6j"
                        ]
                    }
                },
                {
                    "value": 0.13765586,
                    "n": 2,
                    "scriptPubKey": {
                        "asm": "0 b6fbbd9053e47891fae7f3db7dd3966062b2513c",
                        "hex": "0014b6fbbd9053e47891fae7f3db7dd3966062b2513c",
                        "reqSigs": 1,
                        "type": "witness_v0_keyhash",
                        "addresses": [
                            "bcrt1qkmammyznu3ufr7h870dhm5ukvp3ty5fudkl63e"
                        ]
                    }
                }
            ],
            "hex": "01000000000101e06ec4548803dadb10ef6c66e4f31f319161dc9ec31631e967773b8e042836180200000000ffffffff03881300000000000017a9144c0e4893237f85479f489b32c8ff0faf3ee2e1c987f4390900000000001600145230c895305a232ef2a4feb0a91e7d99e22fd515d20bd20000000000160014b6fbbd9053e47891fae7f3db7dd3966062b2513c0247304402203eeb1713b582be1d74bf6a9f95c573dd41baeedf1efd1bc9a1ad1cccad97c4f70220799a399f53f9325f6cf9681b0138f80bd80f3dc900a4d0ab5cc3c97d5be85f1801210255f56a7be9f88ccf5885ac2f8cd67320424d533d71083270a2891b2488ffb22b00000000"
        },
        {
            "txid": "d21edc2a9ffd0f90982fcdd0ee11a48bc3f78bf437232354f7ad60740a202a14",
            "hash": "bae1180680abb989f5b89b5f49729d3eedcf757a12fd0b7649c944a4ba37eaee",
            "version": 1,
            "size": 255,
            "vsize": 173,
            "weight": 690,
            "locktime": 0,
            "vin": [
                {
                    "txid": "4e2146dbaf82ae1d756e6e61df42cbc6db3409d896ecd80894ceb0d3321c704c",
                    "vout": 2,
                    "scriptSig": {
                        "asm": "",
                        "hex": ""
                    },
                    "txinwitness": [
                        "3045022100ebb8e0ddab46b762e3a9555442cc7ee35c4353d9152e856c97251913902a5056022010d3a0bb51d931a18174dc8ed0ffa37c5ff29f8e924b71d86850de31f3ea4c6e01",
                        "02e0284cdeae6a8c971e2ea5004ebf9196ee9b3037d6f1ed039c4b5672a69cddc6"
                    ],
                    "sequence": 4294967295
                }
            ],
            "vout": [
                {
                    "value": 5.0E-5,
                    "n": 0,
                    "scriptPubKey": {
                        "asm": "OP_HASH160 4c0e4893237f85479f489b32c8ff0faf3ee2e1c9 OP_EQUAL",
                        "hex": "a9144c0e4893237f85479f489b32c8ff0faf3ee2e1c987",
                        "reqSigs": 1,
                        "type": "scripthash",
                        "addresses": [
                            "2MzBNTJDjjXgViKBGnatDU3yWkJ8pJkEg9w"
                        ]
                    }
                },
                {
                    "value": 0.006,
                    "n": 1,
                    "scriptPubKey": {
                        "asm": "0 89c79bc0628d2d8b1cd91c2ed0e75db13e6f3f3a",
                        "hex": "001489c79bc0628d2d8b1cd91c2ed0e75db13e6f3f3a",
                        "reqSigs": 1,
                        "type": "witness_v0_keyhash",
                        "addresses": [
                            "bcrt1q38rehsrz35kck8xershdpe6akylx70e63azh0p"
                        ]
                    }
                },
                {
                    "value": 1.11150986,
                    "n": 2,
                    "scriptPubKey": {
                        "asm": "0 062d20a6692350b7a39397c50857a7f725788da0",
                        "hex": "0014062d20a6692350b7a39397c50857a7f725788da0",
                        "reqSigs": 1,
                        "type": "witness_v0_keyhash",
                        "addresses": [
                            "bcrt1qqckjpfnfydgt0gunjlzss4a87ujh3rdq7u4yrr"
                        ]
                    }
                }
            ],
            "hex": "010000000001014c701c32d3b0ce9408d8ec96d80934dbc6cb42df616e6e751dae82afdb46214e0200000000ffffffff03881300000000000017a9144c0e4893237f85479f489b32c8ff0faf3ee2e1c987c02709000000000016001489c79bc0628d2d8b1cd91c2ed0e75db13e6f3f3a8a07a00600000000160014062d20a6692350b7a39397c50857a7f725788da002483045022100ebb8e0ddab46b762e3a9555442cc7ee35c4353d9152e856c97251913902a5056022010d3a0bb51d931a18174dc8ed0ffa37c5ff29f8e924b71d86850de31f3ea4c6e012102e0284cdeae6a8c971e2ea5004ebf9196ee9b3037d6f1ed039c4b5672a69cddc600000000"
        },
        {
            "txid": "78b64023700c50e221d68c093cc3fe32a5314e9696bacb1b6d10217d51664d68",
            "hash": "f072bb4fec0ae128ed678d24475cf719c0dd3ba0b44bf14f7300df60408ee365",
            "version": 1,
            "size": 255,
            "vsize": 173,
            "weight": 690,
            "locktime": 0,
            "vin": [
                {
                    "txid": "376a560724612cfc3249e8f93f1a4156fc1b62678716290cbd326e16b509f6c3",
                    "vout": 2,
                    "scriptSig": {
                        "asm": "",
                        "hex": ""
                    },
                    "txinwitness": [
                        "30450221008f8eee212f209ba2a179197bd4ba35a35ad7a304599025ddbd192a6e7e64c1920220242c297726948ad408ce54c9a0e0287b283c53dc68323537f24a7e3ecd8c526b01",
                        "03f870bcd3a46e80e4b1236302e62318b412cc97ef096fc976a89deb569dc11ef1"
                    ],
                    "sequence": 4294967295
                }
            ],
            "vout": [
                {
                    "value": 5.0E-5,
                    "n": 0,
                    "scriptPubKey": {
                        "asm": "OP_HASH160 4c0e4893237f85479f489b32c8ff0faf3ee2e1c9 OP_EQUAL",
                        "hex": "a9144c0e4893237f85479f489b32c8ff0faf3ee2e1c987",
                        "reqSigs": 1,
                        "type": "scripthash",
                        "addresses": [
                            "2MzBNTJDjjXgViKBGnatDU3yWkJ8pJkEg9w"
                        ]
                    }
                },
                {
                    "value": 0.016,
                    "n": 1,
                    "scriptPubKey": {
                        "asm": "0 1437b91493d1929b1b42a80e83229c347c28f937",
                        "hex": "00141437b91493d1929b1b42a80e83229c347c28f937",
                        "reqSigs": 1,
                        "type": "witness_v0_keyhash",
                        "addresses": [
                            "bcrt1qzsmmj9yn6xffkx6z4q8gxg5ux37z37fhr598r9"
                        ]
                    }
                },
                {
                    "value": 1.10145514,
                    "n": 2,
                    "scriptPubKey": {
                        "asm": "0 91ad2cce99e8e4455de5f44559816b98213f3503",
                        "hex": "001491ad2cce99e8e4455de5f44559816b98213f3503",
                        "reqSigs": 1,
                        "type": "witness_v0_keyhash",
                        "addresses": [
                            "bcrt1qjxkjen5earjy2h0973z4nqttnqsn7dgrnsgy27"
                        ]
                    }
                }
            ],
            "hex": "01000000000101c3f609b5166e32bd0c29168767621bfc56411a3ff9e84932fc2c612407566a370200000000ffffffff03881300000000000017a9144c0e4893237f85479f489b32c8ff0faf3ee2e1c987006a1800000000001600141437b91493d1929b1b42a80e83229c347c28f937eaaf90060000000016001491ad2cce99e8e4455de5f44559816b98213f3503024830450221008f8eee212f209ba2a179197bd4ba35a35ad7a304599025ddbd192a6e7e64c1920220242c297726948ad408ce54c9a0e0287b283c53dc68323537f24a7e3ecd8c526b012103f870bcd3a46e80e4b1236302e62318b412cc97ef096fc976a89deb569dc11ef100000000"
        },
        {
            "txid": "dd4243c2743a2d2351814a14628e1976e6fb208e63bd2bbd441180c441205027",
            "hash": "dd4243c2743a2d2351814a14628e1976e6fb208e63bd2bbd441180c441205027",
            "version": 1,
            "size": 252,
            "vsize": 252,
            "weight": 1008,
            "locktime": 0,
            "vin": [
                {
                    "txid": "20bd92c145d9d724283c9536355a82e6fd87637963dd7e0c1fb87c9de50a4fba",
                    "vout": 2,
                    "scriptSig": {
                        "asm": "3045022100ba97f6336b3bb3e07cf584010c7b8ab52957e34e462e71252c63f498d51f45b70220708dd78d2d9943f8c176055963ab706870274068fe7b1e5d87592a837336a534[ALL] 039978f14b2463d7d4790cdf2a37c2a3d872dd517ca91db7f6f7a858a7ac661c60",
                        "hex": "483045022100ba97f6336b3bb3e07cf584010c7b8ab52957e34e462e71252c63f498d51f45b70220708dd78d2d9943f8c176055963ab706870274068fe7b1e5d87592a837336a5340121039978f14b2463d7d4790cdf2a37c2a3d872dd517ca91db7f6f7a858a7ac661c60"
                    },
                    "sequence": 4294967295
                }
            ],
            "vout": [
                {
                    "value": 5.0E-5,
                    "n": 0,
                    "scriptPubKey": {
                        "asm": "OP_HASH160 4c0e4893237f85479f489b32c8ff0faf3ee2e1c9 OP_EQUAL",
                        "hex": "a9144c0e4893237f85479f489b32c8ff0faf3ee2e1c987",
                        "reqSigs": 1,
                        "type": "scripthash",
                        "addresses": [
                            "2MzBNTJDjjXgViKBGnatDU3yWkJ8pJkEg9w"
                        ]
                    }
                },
                {
                    "value": 0.006,
                    "n": 1,
                    "scriptPubKey": {
                        "asm": "0 13afc3a26c010dddaf2410a9d97b5054a4e8d309",
                        "hex": "001413afc3a26c010dddaf2410a9d97b5054a4e8d309",
                        "reqSigs": 1,
                        "type": "witness_v0_keyhash",
                        "addresses": [
                            "bcrt1qzwhu8gnvqyxamteyzz5aj76s2jjw35cfctjvy8"
                        ]
                    }
                },
                {
                    "value": 9.45414148,
                    "n": 2,
                    "scriptPubKey": {
                        "asm": "0 5228ee46a95383b314396dda75e707b8bed83034",
                        "hex": "00145228ee46a95383b314396dda75e707b8bed83034",
                        "reqSigs": 1,
                        "type": "witness_v0_keyhash",
                        "addresses": [
                            "bcrt1q2g5wu34f2wpmx9pedhd8tec8hzldsvp56hljn8"
                        ]
                    }
                }
            ],
            "hex": "0100000001ba4f0ae59d7cb81f0c7edd63796387fde6825a3536953c2824d7d945c192bd20020000006b483045022100ba97f6336b3bb3e07cf584010c7b8ab52957e34e462e71252c63f498d51f45b70220708dd78d2d9943f8c176055963ab706870274068fe7b1e5d87592a837336a5340121039978f14b2463d7d4790cdf2a37c2a3d872dd517ca91db7f6f7a858a7ac661c60ffffffff03881300000000000017a9144c0e4893237f85479f489b32c8ff0faf3ee2e1c987c02709000000000016001413afc3a26c010dddaf2410a9d97b5054a4e8d30904e05938000000001600145228ee46a95383b314396dda75e707b8bed8303400000000"
        },
        {
            "txid": "aa33deb87512c2c417a0a9a17c58a36dcf2686fca8b50cc608ad952178a350c2",
            "hash": "aa33deb87512c2c417a0a9a17c58a36dcf2686fca8b50cc608ad952178a350c2",
            "version": 1,
            "size": 251,
            "vsize": 251,
            "weight": 1004,
            "locktime": 0,
            "vin": [
                {
                    "txid": "7ac20c807aac72bc1cc57ef25f61567f74a031952b0a18618bc06be504dc715d",
                    "vout": 2,
                    "scriptSig": {
                        "asm": "3044022073a8a8ee9cc490093e6de5708b3727cef35f41038713fab9a5c235b4b400b73102206f97f4fc8faefb534e85c0f3773f2d67781c9871f681211276619054fc540152[ALL] 0374e07f24beca2270cf305100652149a64c80d76611f775ec276658aeae4ef0b5",
                        "hex": "473044022073a8a8ee9cc490093e6de5708b3727cef35f41038713fab9a5c235b4b400b73102206f97f4fc8faefb534e85c0f3773f2d67781c9871f681211276619054fc54015201210374e07f24beca2270cf305100652149a64c80d76611f775ec276658aeae4ef0b5"
                    },
                    "sequence": 4294967295
                }
            ],
            "vout": [
                {
                    "value": 5.0E-5,
                    "n": 0,
                    "scriptPubKey": {
                        "asm": "OP_HASH160 4c0e4893237f85479f489b32c8ff0faf3ee2e1c9 OP_EQUAL",
                        "hex": "a9144c0e4893237f85479f489b32c8ff0faf3ee2e1c987",
                        "reqSigs": 1,
                        "type": "scripthash",
                        "addresses": [
                            "2MzBNTJDjjXgViKBGnatDU3yWkJ8pJkEg9w"
                        ]
                    }
                },
                {
                    "value": 0.016,
                    "n": 1,
                    "scriptPubKey": {
                        "asm": "0 1c397ba7ea8410dbd556c51f8184a14ab0151143",
                        "hex": "00141c397ba7ea8410dbd556c51f8184a14ab0151143",
                        "reqSigs": 1,
                        "type": "witness_v0_keyhash",
                        "addresses": [
                            "bcrt1qrsuhhfl2ssgdh42kc50crp9pf2cp2y2ruplr8l"
                        ]
                    }
                },
                {
                    "value": 1.1126122,
                    "n": 2,
                    "scriptPubKey": {
                        "asm": "0 c38c3d890c415f2c13f6925c1ad1d4a7cb4f7dfe",
                        "hex": "0014c38c3d890c415f2c13f6925c1ad1d4a7cb4f7dfe",
                        "reqSigs": 1,
                        "type": "witness_v0_keyhash",
                        "addresses": [
                            "bcrt1qcwxrmzgvg90jcylkjfwp45w55l957l07mtsydu"
                        ]
                    }
                }
            ],
            "hex": "01000000015d71dc04e56bc08b61180a2b9531a0747f56615ff27ec51cbc72ac7a800cc27a020000006a473044022073a8a8ee9cc490093e6de5708b3727cef35f41038713fab9a5c235b4b400b73102206f97f4fc8faefb534e85c0f3773f2d67781c9871f681211276619054fc54015201210374e07f24beca2270cf305100652149a64c80d76611f775ec276658aeae4ef0b5ffffffff03881300000000000017a9144c0e4893237f85479f489b32c8ff0faf3ee2e1c987006a1800000000001600141c397ba7ea8410dbd556c51f8184a14ab015114324b6a10600000000160014c38c3d890c415f2c13f6925c1ad1d4a7cb4f7dfe00000000"
        },
        {
            "txid": "719606705c6832f7180ab9db5e1ce6a51bad80a5cbf3b57b806dd10f3d7d5124",
            "hash": "c670f473daee2ad2fabc2b8cc9e99d499c19ef9f2d3331345674a0d3b1b96639",
            "version": 1,
            "size": 425,
            "vsize": 263,
            "weight": 1052,
            "locktime": 0,
            "vin": [
                {
                    "txid": "d21edc2a9ffd0f90982fcdd0ee11a48bc3f78bf437232354f7ad60740a202a14",
                    "vout": 1,
                    "scriptSig": {
                        "asm": "",
                        "hex": ""
                    },
                    "txinwitness": [
                        "30440220073a37eb4371dc3d0cf218d6e9b8e6044275acd07402ccebdf24f65b60a3c1f70220647e71c173f992fc0c5ec6c2b0b1653a95118098269e318c41d1bc33da3ff14f01",
                        "03c3e858472f39d31c6defdf38b4778660501f0ccfa524b3dd8ba61117b7646635"
                    ],
                    "sequence": 4294967295
                },
                {
                    "txid": "f52b22f8c5156fb51122a90b8dc39989c6912c02a69e22bd3148b0692a7cd699",
                    "vout": 1,
                    "scriptSig": {
                        "asm": "",
                        "hex": ""
                    },
                    "txinwitness": [
                        "304402202b8ef5de1c56328d3797265272540a054fc04c158b23ee6385b69b14486422c10220749f591fcf4ef995df8f1e7d9aa3cf0c045f1616386b86b419197b360c871fca01",
                        "02c73e60f00bc72b56568a9f371b9122b3ee29d41730670e98ff8da58e7bbfab28"
                    ],
                    "sequence": 4294967295
                }
            ],
            "vout": [
                {
                    "value": 1.0E-5,
                    "n": 0,
                    "scriptPubKey": {
                        "asm": "0 223d978073802f79e6ecdc7591e5dc1f0ea7030d6466f73c6b90391bc72e886f",
                        "hex": "0020223d978073802f79e6ecdc7591e5dc1f0ea7030d6466f73c6b90391bc72e886f",
                        "reqSigs": 1,
                        "type": "witness_v0_scripthash",
                        "addresses": [
                            "bcrt1qyg7e0qrnsqhhnehvm36erewuru82wqcdv3n0w0rtjqu3h3ew3phs27rfy6"
                        ]
                    }
                },
                {
                    "value": 0.0,
                    "n": 1,
                    "scriptPubKey": {
                        "asm": "OP_RETURN 758e9207848c631c6839b1382bb22a52b6ef0645d733389d7be2efb1e8b71454",
                        "hex": "6a20758e9207848c631c6839b1382bb22a52b6ef0645d733389d7be2efb1e8b71454",
                        "type": "nulldata"
                    }
                },
                {
                    "value": 0.02201563,
                    "n": 2,
                    "scriptPubKey": {
                        "asm": "0 5e41d2fb8de1c250410416d8dd153c685d3f9c7b",
                        "hex": "00145e41d2fb8de1c250410416d8dd153c685d3f9c7b",
                        "reqSigs": 1,
                        "type": "witness_v0_keyhash",
                        "addresses": [
                            "bcrt1qteqa97udu8p9qsgyzmvd69fudpwnl8rmt8putj"
                        ]
                    }
                }
            ],
            "hex": "01000000000102142a200a7460adf754232337f48bf7c38ba411eed0cd2f98900ffd9f2adc1ed20100000000ffffffff99d67c2a69b04831bd229ea6022c91c68999c38d0ba92211b56f15c5f8222bf50100000000ffffffff03e803000000000000220020223d978073802f79e6ecdc7591e5dc1f0ea7030d6466f73c6b90391bc72e886f0000000000000000226a20758e9207848c631c6839b1382bb22a52b6ef0645d733389d7be2efb1e8b71454db972100000000001600145e41d2fb8de1c250410416d8dd153c685d3f9c7b024730440220073a37eb4371dc3d0cf218d6e9b8e6044275acd07402ccebdf24f65b60a3c1f70220647e71c173f992fc0c5ec6c2b0b1653a95118098269e318c41d1bc33da3ff14f012103c3e858472f39d31c6defdf38b4778660501f0ccfa524b3dd8ba61117b76466350247304402202b8ef5de1c56328d3797265272540a054fc04c158b23ee6385b69b14486422c10220749f591fcf4ef995df8f1e7d9aa3cf0c045f1616386b86b419197b360c871fca012102c73e60f00bc72b56568a9f371b9122b3ee29d41730670e98ff8da58e7bbfab2800000000"
        },
        {
            "txid": "16cd3283068d2965f26045e15a285e39a762af32ec388ae8c28fb6cb2c468768",
            "hash": "a854736ce90b603599bf21be28bea909c3ffafaed57d5eacea1f1730b68db0d8",
            "version": 1,
            "size": 427,
            "vsize": 264,
            "weight": 1054,
            "locktime": 0,
            "vin": [
                {
                    "txid": "4648da84e1479d222561f72c5211be15510b20129e86c60bdbbdb3e017583a91",
                    "vout": 1,
                    "scriptSig": {
                        "asm": "",
                        "hex": ""
                    },
                    "txinwitness": [
                        "3045022100c9665b9abe7fcab10f775eeafc2391c1fee84c50b50df6d697b1db9a7eea5dd3022070cb7aa57b8f5bf9f2eff11263cf2ea871ab7b9ddfc8e47671cee50ada54724301",
                        "02016f9a6cc454bd1e74c28df36a079231a215812c60581d1e1745e650f82bd123"
                    ],
                    "sequence": 4294967295
                },
                {
                    "txid": "78b64023700c50e221d68c093cc3fe32a5314e9696bacb1b6d10217d51664d68",
                    "vout": 1,
                    "scriptSig": {
                        "asm": "",
                        "hex": ""
                    },
                    "txinwitness": [
                        "304502210094cdec8e08f32919b3f25c8672041305c848b4206256ad64f7090dc97dfd1bf002205c397a310cebc690fac04d13945e012d0031246d4574e92f97e3701ca729b61401",
                        "029b739486d7cf402b3db3913187fad7897e8a5ec3cd8607e9b5fc54a71958b031"
                    ],
                    "sequence": 4294967295
                }
            ],
            "vout": [
                {
                    "value": 1.0E-5,
                    "n": 0,
                    "scriptPubKey": {
                        "asm": "0 e3e81046fd9659b5725736efa404bc1c8f9b2ff6f0af7cb7ddacdcc61e1c7231",
                        "hex": "0020e3e81046fd9659b5725736efa404bc1c8f9b2ff6f0af7cb7ddacdcc61e1c7231",
                        "reqSigs": 1,
                        "type": "witness_v0_scripthash",
                        "addresses": [
                            "bcrt1qu05pq3hajevm2ujhxmh6gp9urj8ektlk7zhhed7a4nwvv8suwgcstjh7k7"
                        ]
                    }
                },
                {
                    "value": 0.0,
                    "n": 1,
                    "scriptPubKey": {
                        "asm": "OP_RETURN c63aacf2e8be20752b6f689c0308967cbc335641f2948a4a7962fdde6c464730",
                        "hex": "6a20c63aacf2e8be20752b6f689c0308967cbc335641f2948a4a7962fdde6c464730",
                        "type": "nulldata"
                    }
                },
                {
                    "value": 0.0220133,
                    "n": 2,
                    "scriptPubKey": {
                        "asm": "0 5e41d2fb8de1c250410416d8dd153c685d3f9c7b",
                        "hex": "00145e41d2fb8de1c250410416d8dd153c685d3f9c7b",
                        "reqSigs": 1,
                        "type": "witness_v0_keyhash",
                        "addresses": [
                            "bcrt1qteqa97udu8p9qsgyzmvd69fudpwnl8rmt8putj"
                        ]
                    }
                }
            ],
            "hex": "01000000000102913a5817e0b3bddb0bc6869e12200b5115be11522cf76125229d47e184da48460100000000ffffffff684d66517d21106d1bcbba96964e31a532fec33c098cd621e2500c702340b6780100000000ffffffff03e803000000000000220020e3e81046fd9659b5725736efa404bc1c8f9b2ff6f0af7cb7ddacdcc61e1c72310000000000000000226a20c63aacf2e8be20752b6f689c0308967cbc335641f2948a4a7962fdde6c464730f2962100000000001600145e41d2fb8de1c250410416d8dd153c685d3f9c7b02483045022100c9665b9abe7fcab10f775eeafc2391c1fee84c50b50df6d697b1db9a7eea5dd3022070cb7aa57b8f5bf9f2eff11263cf2ea871ab7b9ddfc8e47671cee50ada547243012102016f9a6cc454bd1e74c28df36a079231a215812c60581d1e1745e650f82bd1230248304502210094cdec8e08f32919b3f25c8672041305c848b4206256ad64f7090dc97dfd1bf002205c397a310cebc690fac04d13945e012d0031246d4574e92f97e3701ca729b6140121029b739486d7cf402b3db3913187fad7897e8a5ec3cd8607e9b5fc54a71958b03100000000"
        }
    ],
    "time": 1605510591,
    "mediantime": 1589548514,
    "nonce": 1,
    "bits": "207fffff",
    "difficulty": 4.656542373906925E-10,
    "chainwork": "0000000000000000000000000000000000000000000000000000000000000118",
    "nTx": 11,
    "previousblockhash": "1a477356be8211dd4b3a4162521331a6af9b5999401aad8d147a56a1f28c3da3",
    "nextblockhash": "7d8267341a57f1f626b450eb22b2dbf208f13ec176e1cc015aa4d2b2ea55016d"
}
